:100000000C94CC160C94F6160C94F6160C94F6166A
:100010000C94F6160C94F6160C94F6160C94F61630
:100020000C94F6160C94F6160C9461D40C94DED451
:100030000C94F6160C94F6160C94F6160C94F61610
:100040000C94F6160C9494960C94F6160C94F616E2
:100050000C94F6160C94F6160C94A7A90C94C0D325
:100060000C94F6160C94F6160C94F6160C94F616E0
:100070000C94F6160C94F6160C94F6160C94F616D0
:100080000C94F6160C94F6160C94F6160C94F616C0
:100090000C9471CB0C94F6164FD17BD19DD19DD190
:1000A0009DD19DD19DD19DD19DD19DD19DD19DD1E0
:1000B0009DD19DD193D18BD183D19DD19DD19DD106
:1000C0009DD19DD19DD19DD175D15BD163D16DD194
:1000D0004E414E494E495459494E46CDCCCC3D0A2D
:1000E000D7233C17B7D13877CC2B329595E6241F10
:1000F000B14F0A000020410000C84200401C4620C9
:10010000BCBE4CCA1B0E5AAEC59D744572726F724E
:100110002077726974696E6720746F20454550526C
:100120004F4D210A002020506C616E6E6572427541
:100130006666657242797465733A2000204672657E
:1001400065204D656D6F72793A2000436F6D70695F
:100150006C65643A20446563203236203230313990
:100160000A00204C61737420557064617465643AB0
:1001700020323031392D31322D3234207C204175FE
:1001800074686F723A202844722E5068696C334448
:10019000290A00322E302E310A004D61726C696ED0
:1001A0000020536F667477617265205265736574C1
:1001B0000A00205761746368646F67205265736535
:1001C000740A002042726F776E206F75742052653A
:1001D0007365740A002045787465726E616C2052F4
:1001E000657365740A00506F77657255700A007305
:1001F000746172740A005072696E7465722068616D
:100200006C7465642E206B696C6C28292063616CAA
:100210006C6564210A002121204B494C4C2063610C
:100220007573656420627920746F6F206D756368E3
:1002300020696E6163746976652074696D65202D2F
:100240002063757272656E7420636F6D6D616E648C
:100250003A200047323858590050726F7465637401
:1002600065642050696E0A001C1D132F1E1F121892
:100270002021112422230D0E260F2C2710000120EF
:100280004500205A002059002058004D3234004DBE
:10029000323320257300004B494C4C45442E20003E
:1002A0004F4646004F4E006563686F3A00457272D4
:1002B0006F723A00290A002028002920453A0029B7
:1002C000205A3A002920593A0020583A00537465C0
:1002D000707065722063757272656E742076616CE1
:1002E00075657320696E20252028416D7073293A49
:1002F0000A00507265737320627574746F6E207497
:100300006F2068656174206E6F7A7A6C650A0050A0
:100310007265737320627574746F6E20746F2072CF
:100320006573756D650A00496E7365727420666940
:100330006C616D656E7420616E642070726573739C
:1003400020627574746F6E0A00486F74656E642065
:10035000746F6F20636F6C640A00486F74656E641D
:1003600020746F6F20636F6C640A00496E7365724E
:10037000742066696C616D656E7420616E642070B6
:100380007265737320627574746F6E0A00426564DF
:10039000204C6576656C696E6720004661696C6506
:1003A0006420746F20656E61626C65204265642014
:1003B0004C6576656C696E670A00426564204C6521
:1003C00076656C20436F7272656374696F6E204D41
:1003D00061747269783A000A0A426564204C657655
:1003E000656C20436F7272656374696F6E204D6136
:1003F000747269783A0025532025692F33002F3312
:100400002E0A0050726F62696E6720706F696E7499
:100410002000202844525952554E29004732392095
:100420004175746F20426564204C6576656C696E19
:1004300067003F2856296572626F7365206C657688
:10044000656C20696D706C61757369626C652028DC
:10045000302D34292E0A0050726F62696E67205069
:100460006F696E74005A2050726F6265205061731C
:1004700074204265640A00486F6D652058592066F3
:10048000697273740A00486F6D6520585920466977
:10049000727374005A2050726F62652050617374D9
:1004A0002042656400205400205200416363656C63
:1004B00065726174696F6E3A20500020466C6F77E8
:1004C0003A2000496E76616C6964206578747275B3
:1004D0006465720A0020633A0020643A0020693A99
:1004E0000020703A0043290A0061626C656420288C
:1004F0006D696E2074656D70200064697300656EAF
:1005000000436F6C64206578747275646573206154
:1005100072652000204D39322058004D3131322093
:1005200053687574646F776E004543484F00494EB9
:10053000464F004552524F52530044525952554E65
:1005400000434F4D4D554E49434154494F4E006F66
:1005500066660029052E0533053A054105444542E6
:1005600055473A004E6F204D6F76652E0020204D86
:1005700061783A200020204D696E3A200020005317
:100580006F667420656E6473746F70733A200045F3
:100590004550524F4D204F4B0A00416476616E63C7
:1005A00065204B3D003F4B2076616C7565206F7573
:1005B00074206F662072616E67652028302D31309F
:1005C000292E0A00627573793A207061757365642B
:1005D00020666F7220696E7075740A006275737997
:1005E0003A2070617573656420666F72207573655B
:1005F000720A00627573793A2070726F6365737363
:10060000696E670A0020496E76616C6964206578BE
:1006100074727564657220004572723A20546F6F6F
:10062000206661722100546F6F20666172206672CD
:100630006F6D207265666572656E636520706F69A7
:100640006E740A004F666673657473204170706C37
:10065000696564004D3131332053004361703A00C5
:100660004348414D4245525F54454D5045524154D7
:10067000555245004D4F54494F4E5F4D4F444553E1
:1006800000544845524D414C5F50524F54454354DD
:10069000494F4E004155544F5245504F52545F53AD
:1006A000445F5354415455530050524F4D50545F82
:1006B000535550504F525400454D455247454E43B7
:1006C000595F50415253455200434153455F4C4995
:1006D0004748545F4252494748544E45535300548B
:1006E0004F47474C455F4C494748545300534F468A
:1006F00054574152455F504F574552004255494C5F
:10070000445F50455243454E54004C4556454C4974
:100710004E475F44415441005A5F50524F4245009A
:100720004155544F4C4556454C005052494E545F2C
:100730004A4F420050524F4752455353004155547F
:100740004F5245504F52545F54454D5000564F4CF8
:10075000554D455452494300454550524F4D004276
:10076000494E4152595F46494C455F5452414E53A0
:100770004645520053455249414C5F584F4E5F58D1
:100780004F4646004649524D574152455F4E414DF6
:10079000453A4D61726C696E20322E302E31202820
:1007A0004769744875622920534F555243455F434A
:1007B0004F44455F55524C3A68747470733A2F2F0A
:1007C0006769746875622E636F6D2F4D61726C6915
:1007D0006E4669726D776172652F4D61726C696EDC
:1007E0002050524F544F434F4C5F56455253494F40
:1007F0004E3A312E30204D414348494E455F5459C1
:1008000050453A5072696E7472626F742053696D0C
:10081000706C65204D6574616C2045585452554488
:1008200045525F434F554E543A3120555549443A4D
:1008300034306365363164312D326564302D3435A2
:1008400033302D383330342D35356533656561618E
:10085000656266660A002F2F2000536C6565702E56
:100860002E2E0050726F6265204F6666736574208D
:100870005A0050726F6265204F66667365745A3A0B
:100880002000220A00556E6B6E6F776E20636F6DCD
:100890006D616E643A202200205A3A200020593AB5
:1008A000200042656420583A2000290A0020746F15
:1008B00020003F5A206F7574206F662072616E674A
:1008C000652028003F59206F7574206F6620726183
:1008D0006E676520282D003F58206F7574206F6665
:1008E0002072616E676520282D0050726F6265204E
:1008F0004F6666736574205800446F6E652073619F
:1009000076696E672066696C652E0A005072696EA2
:100910007465722073746F707065642064756520EF
:10092000746F206572726F72732E2046697820741E
:100930006865206572726F7220616E6420757365E0
:10094000204D39393920746F207265737461727467
:100950002E202854656D706572617475726520690A
:10096000732072657365742E20536574206974203A
:1009700061667465722072657374617274696E6702
:10098000290A004E6F20436865636B73756D20778D
:10099000697468206C696E65206E756D6265722C75
:1009A000204C617374204C696E653A20004E6F20B4
:1009B000436865636B73756D2077697468206C6933
:1009C0006E65206E756D6265722C204C61737420AB
:1009D0004C696E653A2000636865636B73756D20C2
:1009E0006D69736D617463682C204C617374204C65
:1009F000696E653A20004C696E65204E756D6265C2
:100A000072206973206E6F74204C617374204C697E
:100A10006E65204E756D6265722B312C204C6173B2
:100A200074204C696E653A20004D31313000776199
:100A300069740A00526573656E643A2000204200B2
:100A40002050006F6B00220A00656E717565756538
:100A5000696E6720220053442072656164206572CC
:100A6000726F720A00446F6E65207072696E7469ED
:100A70006E672066696C650A004D32390053544F29
:100A8000505045442E2000456E642066696C6520F8
:100A90006C6973740A00426567696E2066696C65EB
:100AA000206C6973740A0043757272656E742066F7
:100AB000696C653A20005072696E742074696D65C6
:100AC0003A20002569730025696D2025697300258A
:100AD00069682025696D20256973002569642025D2
:100AE00069682025696D20256973002569792025AD
:100AF0006964202569682025696D20256973006F68
:100B00006B00504944204175746F74756E652066A2
:100B100061696C6564212042616420657874727536
:100B2000646572206E756D6265720A00A100000036
:100B30006900A20000006300B00000000900C100CD
:100B400000004100C20000004100C300000041005D
:100B5000C40000004100C50000004100C6000000C4
:100B60004145C70000004300C80000004500C9001F
:100B700000004500CD0000004900D10000004E00FB
:100B8000D50000004F00D60000004F00D700000045
:100B90007800DC0000005500DD0000005900E00096
:100BA00000006100E10000006100E200000061005F
:100BB000E30000006100E40000006100E5000000C7
:100BC0006100E60000006165E70000006300E800E6
:100BD00000006500E90000006500EA000000650013
:100BE000EB0000006500EC0000006900ED00000073
:100BF0006900EE0000006900EF0000006900F100EC
:100C000000006E00F20000006F00F30000006F00B3
:100C1000F40000006F00F50000006F00F600000017
:100C20006F00F80000006F00F90000007500FA0086
:100C300000007500FB0000007500FC00000075005E
:100C4000FD0000007900FF000000790004010000B1
:100C5000410005010000610006010000430007019A
:100C6000000063000C01000043000D010000630060
:100C70000E01000044000F0100006400110100009B
:100C800064001901000065001F01000067003001C9
:100C900000004900310100006900410100004C00E2
:100CA000420100006C00430100004E0044010000BE
:100CB0006E00480100006E005901000072005A01E8
:100CC000000053005B01000073005F01000073002F
:100CD0006001000053006101000073006501000025
:100CE00074006F01000075007C0100007A007D0136
:100CF00000005A007E0100007A00920100006600A8
:100D0000E302000078008403000027008503000050
:100D10002700860300004100870300002E0088039F
:100D2000000045008903000048008A0300004900D4
:100D30008C0300004F008E03000059008F03000059
:100D40004F009003000069009103000041009203EE
:100D5000000042009303000054009403000034009C
:100D6000950300004500960300005A009703000019
:100D700048009803000030009903000049009A03DE
:100D800000004B009B0300005E009C0300004D0030
:100D90009D0300004E009E03000033009F030000EF
:100DA0004F00A00300006E00A10300005000A30349
:100DB00000004500A40300005400A50300005900F2
:100DC000A60300007000A70300005800A80300005D
:100DD0005000A90300004F00AA0300004900AB0324
:100DE00000005900AC0300006100AD030000650085
:100DF000AE0300006E00AF0300006900B003000006
:100E00007600B10300006100B20300004200B303AA
:100E100000007600B40300006400B5030000650024
:100E2000B60300005A00B70300006E00B8030000CC
:100E30003000B90300006900BA0300006B00BB0377
:100E400000004C00BC0300007500BD0300007600EC
:100E5000BE0300006500BF0300006F00C003000078
:100E60006E00C10300007000C20300006300C303F2
:100E700000006F00C40300007400C503000076008A
:100E8000C60300007000C70300005800C80300003C
:100E90005700C90300007700CA0300006900CB03B4
:100EA00000007600CC0300006F00CD030000760048
:100EB000CE0300007700010400004500100400008C
:100EC00041001104000062001204000042001304FB
:100ED00000005400140400005100150400004500F7
:100EE000160400002A001704000045001804000042
:100EF0004E00190400004E001A0400004B001B04B1
:100F0000000054001C0400004D001D0400004800B7
:100F10001E0400004F001F0400006E0020040000AB
:100F20005000210400004300220400005400230468
:100F300000005900240400006F0025040000580040
:100F40002604000055002704000079002804000052
:100F500057002904000057002A04000062002B04F7
:100F60000000627C2C04000062002D04000065007B
:100F70002E0400007C4F2F040000397C3004000058
:100F800061003104000036003204000042003304E6
:100F900000007200340400006100350400006500A8
:100FA000360400002A003704000065003804000001
:100FB00075003904000075003A0400006B003B0422
:100FC00000006E003C0400006D003D04000048007D
:100FD0003E0400006F003F0400006E00400400006B
:100FE00070004104000063004204000074004304E8
:100FF000000079004404000071704504000078008E
:101000004604000075004704000079004804000011
:1010100077004904000077004A04000062004B0496
:101020000000627C4C04000062004D04000065007A
:101030004E0400007C6F4F04000067005104000064
:101040006500222000002E001E2100005078222181
:101050000000544D902100003C2D922100002D3EB7
:10106000B02100000300BB21000004003C2200006E
:101070007E00482200007E3D60220000213D61226A
:1010800000003D00642200003C3D652200003E3D22
:10109000F12300000700A03000003D0021F3010013
:1010A0000200C2F401000500A2000000EC00B00044
:1010B0000000DF00E4000000E100F6000000EF00A7
:1010C000F7000000FD00FC000000F500E302000056
:1010D000EB0087030000A5008F030000F4009803D5
:1010E0000000F2009E030000E300A3030000F600EE
:1010F000A9030000F400AC030000E000AD03000011
:10110000E300B1030000E000B2030000E200B50319
:101110000000E300B8030000F200BC030000E4009C
:10112000BE030000E300C0030000F700C10300009D
:10113000E600C3030000E500902100007F0092213B
:1011400000007E001A220000E8001E220000F300CA
:1011500088250000FF0002300000A1000C300000D4
:10116000A2000D300000A3009B300000DE009C3088
:101170000000DF00A03000003D00A1300000A7000B
:10118000A2300000B100A3300000A800A43000008D
:10119000B200A5300000A900A6300000B300A730BF
:1011A0000000AA00A8300000B400A9300000AB0085
:1011B000AA300000B500AB300000B600AC30000033
:1011C000B6DEAD300000B700AE300000B7DEAF30A5
:1011D0000000B800B0300000B8DEB1300000B90047
:1011E000B2300000B9DEB3300000BA00B430000005
:1011F000BADEB5300000BB00B6300000BBDEB73051
:101200000000BC00B8300000BCDEB9300000BD00FA
:10121000BA300000BDDEBB300000BE00BC300000B4
:10122000BEDEBD300000BF00BE300000BFDEBF30FC
:101230000000C000C0300000C0DEC1300000C100AE
:10124000C2300000C1DEC3300000AF00C430000077
:10125000C200C5300000C2DEC6300000C300C73087
:101260000000C3DEC8300000C400C9300000C4DE86
:10127000CA300000C500CB300000C600CC300000F2
:10128000C700CD300000C800CE300000C900CF300C
:101290000000CA00D0300000CADED1300000CADF32
:1012A000D2300000CB00D3300000CBDED4300000C1
:1012B000CBDFD5300000CC00D6300000CCDED730FC
:1012C0000000CCDFD8300000CD00D9300000CDDEEA
:1012D000DA300000CDDFDB300000CE00DC30000073
:1012E000CEDEDD300000CEDFDE300000CF00DF30AC
:1012F0000000D000E0300000D100E1300000D2005A
:10130000E2300000D300E3300000AC00E430000025
:10131000D400E5300000AD00E6300000D500E73035
:101320000000AE00E8300000D600E9300000D70031
:10133000EA300000D800EB300000D900EC300000AB
:10134000DA00ED300000DB00EF300000DC00F230AE
:101350000000A600F3300000DD00F4300000B3DE32
:10136000F7300000DCDEFA300000A6DEFB300000C3
:10137000A500FC300000B000FD300000A400074EC6
:101380000000FB0086510000FC0043530000FA00FF
:1013900064FF0000A40065FF0000A50066FF0000D8
:1013A000A60067FF0000A70068FF0000A80069FF13
:1013B0000000A9006AFF0000AA006BFF0000AB005C
:1013C0006CFF0000AC006DFF0000AD006EFF000080
:1013D000AE006FFF0000AF0070FF0000B00071FFB3
:1013E0000000B10072FF0000B20073FF0000B30004
:1013F00074FF0000B40075FF0000B50076FF000028
:10140000B60077FF0000B70078FF0000B80079FF52
:101410000000B9007AFF0000BA007BFF0000BB00AB
:101420007CFF0000BC007DFF0000BD007EFF0000CF
:10143000BE007FFF0000BF0080FF0000C00081FFF2
:101440000000C10082FF0000C20083FF0000C30053
:1014500084FF0000C40085FF0000C50086FF000077
:10146000C60087FF0000C70088FF0000C80089FF92
:101470000000C9008AFF0000CA008BFF0000CB00FB
:101480008CFF0000CC008DFF0000CD008EFF00001F
:10149000CE008FFF0000CF0090FF0000D00091FF32
:1014A0000000D10092FF0000D20093FF0000D300A3
:1014B00094FF0000D40095FF0000D50096FF0000C7
:1014C000D60097FF0000D70098FF0000D80099FFD2
:1014D0000000D9009AFF0000DA009BFF0000DB004B
:1014E0009CFF0000DC009DFF0000DD009EFF00006F
:1014F000DE009FFF0000DF00E5FF00005C00040E3F
:101500001F041C000000000E1315110E00001C101B
:10151000181705060500040A0A0A0A11110E0C1212
:10152000120C00000000001F1511151F00002D2DCA
:101530002D005344002020202000202020202020A7
:1015400020002568753A25303268750025303268EC
:10155000753A253032687500506C656173652052AC
:1015600065736574005052494E5445522048414CB1
:101570005445440025533A202553005072696E7437
:10158000696E672E2E2E005072696E742050617540
:10159000736564004D6564696120496E736572749A
:1015A0006564005072696E7472626F742053696D65
:1015B000706C65204D6574616C2052656164792E94
:1015C000002055004C0046696C616D656E74206C9E
:1015D0006F61642F756E6C6F6164206C656E6774EB
:1015E00068733A0A0020204D393030204B004C6996
:1015F0006E65617220416476616E63653A0A00200F
:10160000204D3835312058005A2D50726F626520B8
:101610004F66667365740020204D323039205300C8
:101620004175746F2D526574726163743A20533D35
:101630003020746F2064697361626C652C203120E6
:10164000746F20696E7465727072657420452D6FB9
:101650006E6C79206D6F766573206173207265748E
:10166000726163742F7265636F7665720A0020463B
:101670000020570020204D3230382053005265633F
:101680006F7665723A20533C6C656E6774683E20D5
:10169000463C756E6974732F6D3E0A00204600202B
:1016A000570020204D32303720530052657472614C
:1016B00063743A20533C6C656E6774683E20463C08
:1016C000756E6974732F6D3E205A3C6C6966743E6A
:1016D0000A00204C00204300204400204900202024
:1016E0004D33303120500050494420736574746983
:1016F0006E67733A0A0020204D3432302053004187
:1017000075746F20426564204C6576656C696E6700
:101710003A0A0020204D323036205800486F6D655F
:10172000206F66667365743A0A00205400205300E7
:1017300020204D32303520420020453C6D61785FDD
:10174000655F6A65726B3E0020583C6D61785F781A
:101750005F6A65726B3E20593C6D61785F795F6AA4
:1017600065726B3E205A3C6D61785F7A5F6A657284
:101770006B3E00416476616E6365643A20423C6D65
:10178000696E5F7365676D656E745F74696D655FC3
:1017900075733E20533C6D696E5F6665656472616A
:1017A00074653E20543C6D696E5F74726176656C41
:1017B0005F66656564726174653E00205400205266
:1017C0000020204D323034205000416363656C6549
:1017D000726174696F6E2028756E6974732F73322D
:1017E000293A20503C7072696E745F616363656C66
:1017F0003E20523C726574726163745F616363651D
:101800006C3E20543C74726176656C5F6163636505
:101810006C3E0A0020204D3230312058004D617856
:10182000696D756D20416363656C65726174696F84
:101830006E2028756E6974732F7332293A0A00205E
:10184000204D3230332058004D6178696D756D2020
:101850006665656472617465732028756E6974735A
:101860002F73293A0A0053746570732070657220D3
:10187000756E69743A0A0020204D323030204430B1
:101880000A0020204D32303020440020446973612A
:10189000626C65640A0046696C616D656E742073E4
:1018A000657474696E67733A0020204732312020D6
:1018B00020203B20556E69747320696E206D6D0089
:1018C00048617264636F6465642044656661756C29
:1018D000742053657474696E6773204C6F6164651E
:1018E000640A00454550524F4D20496E6974696144
:1018F0006C697A65640A00290A002062797465734C
:101900003B2063726320002073746F7265642073E0
:10191000657474696E677320726574726965766543
:1019200064202800202863616C63756C61746564B1
:1019300029210A0020213D2000454550524F4D20CD
:10194000435243206D69736D61746368202D2028B4
:1019500073746F7265642920002053697A653A2098
:1019600000496E6465783A2000204D61726C696EA2
:101970003D563734290A00454550524F4D20766573
:101980007273696F6E206D69736D6174636820286E
:10199000454550524F4D3D004E6F20454550524FEA
:1019A0004D2E0A00290A002062797465733B20637A
:1019B0007263200053657474696E67732053746F8B
:1019C0007265642028004E6F20454550524F4D2EC1
:1019D0000A00454550524F4D206461746173697A25
:1019E00065206572726F722E0A003A0A0020286D17
:1019F0006D290020204D3630332000000096430032
:101A00000096430000E040000020420000A0420099
:101A100000A0420080FC440000BD42D0070000D07E
:101A200007000064000000102700006F70656E0062
:101A3000545249474745524544003A20007A5F6D69
:101A4000696E00795F6D617800785F6D696E005234
:101A500065706F7274696E6720656E6473746F7001
:101A6000207374617475730A002553202563202543
:101A70006320256320256300205A3A0020593A004C
:101A800020583A00656E6473746F707320686974CF
:101A90003A2000486F6D696E67204661696C656425
:101AA00000456E6473746F7073005761726E696E77
:101AB000673A20486F6D696E672042756D702044EB
:101AC000697669736F72203C20310A00020204209B
:101AD000746F6F206C6F6E672065787472757369B0
:101AE0006F6E2070726576656E7465640A0020639F
:101AF0006F6C6420657874727573696F6E20707294
:101B00006576656E7465640A0020453A00205A3A8D
:101B10000020593A00583A0000004842000048426C
:101B200000008040FF01FF0000A0400000A0400036
:101B30000000400000184300001843000018430054
:101B400000000000001843000000000000184300DF
:101B500000184300001843000000000000000000CF
:101B6000000000486F6D652025732573257320469E
:101B7000697273740020746F6F206C6F6E672065DC
:101B80007874727573696F6E2070726576656E74A5
:101B900065640A0020636F6C6420657874727573E5
:101BA000696F6E2070726576656E7465640A00FFF9
:101BB000FDFCFAF8F6F4F2F0EEECEAE9E7E5E3E131
:101BC000E0DEDCDAD9D7D5D4D2D0CFCDCBCAC8C7E6
:101BD000C5C3C2C0BFBDBCBAB9B7B6B4B3B2B0AF6B
:101BE000ADACAAA9A8A6A5A4A2A1A09E9D9C9A99C5
:101BF000989795949392908F8E8D8B8A89888786FB
:101C000084838281807F7E7D7B7A79787776757414
:101C1000737271706F6E6D6C6B6A6968676665640C
:101C2000636261605F5E5D5C5B5A595858575655F8
:101C30005453525150504F4E4D4C4B4A4A494847CD
:101C40004646454443424241403F3E3E3D3C3B3B8D
:101C50003A39383837363535343332323130302F3F
:101C60002E2E2D2C2B2B2A292928272726252524E3
:101C7000232322212120201F1E1E1D1C1C1B1B1A7A
:101C80001919181817161615151413131212111105
:101C9000100F0F0E0E0D0D0C0C0B0A0A0909080887
:101CA00007070606050504040303020201000000FD
:101CB00000000100000001000080005555550000A3
:101CC00000400033333300AAAA2A004992240000BE
:101CD000002000C7711C0099991900D145170055C3
:101CE0005515003BB11300244912001111110000D9
:101CF0000010000F0F0F00E3380E0043790D00CCE9
:101D0000CC0C00C3300C00E8A20B0064210B00AA2D
:101D1000AA0A00703D0A009DD80900427B09009282
:101D2000240900DCD308008888080010420800005D
:101D3000000800F0C1070087870700755007007191
:101D40001C07003EEB0600A1BC0600699006006679
:101D5000660600703E06006118060017F405007460
:101D6000D105005BB00500B2900500627205005518
:101D700055050078390500B81E0500050505004E1B
:101D8000EC040087D40400A1BD040090A70400491E
:101D9000920400C17D0400EE690400C756040044AB
:101DA0004404005C320400082104004110040000D7
:101DB0000004003FF00300F8E0030026D20300C354
:101DC000C30300CCB503003AA803000A9B03003804
:101DD0008E0300C08103009F750300D0690300508B
:101DE0005E03001D53030034480300913D0300339C
:101DF00033030016290300381F0300971503003032
:101E00000C0300030303000BFA020049F10200BABD
:101E1000E802005CE002002DD802002DD00200593B
:101E2000C80200B0C0020031B90200DAB10200AA53
:101E3000AA0200A0A30200BC9C0200FA9502005C6A
:101E40008F0200DF88020082820200457C020027A8
:101E500076020027700200436A02007C640200D010
:101E60005E02003F590200C853020050726F62695F
:101E70006E67204661696C65640A00205A3A20004A
:101E800020593A200042656420583A200050726F71
:101E900062696E67204661696C656400205A3A0089
:101EA00020593A0020436F756E7420583A00232C55
:101EB0000000B8220000561800003A0F0000B808D1
:101EC0000000B1040000710200003E01000024F493
:101ED000D43050C38E20C2A24017828B7011127A68
:101EE000910D816CD90AA861E108C7586607615154
:101EF00043061E4B5D05C145A7041A411104093D67
:101F00009803713931034036DB0265339102D430D6
:101F10005402802E1D02632CEE01752AC501B028E3
:101F2000A001102781018F2564012B244B01E022A1
:101F30003401AC211F018D200D01801FFC00841E87
:101F4000ED00971DDF00B81CD200E61BC600201B69
:101F5000BC00641AB200B219A8000A19A0006A18DD
:101F60009900D117910040178B00B51684003116E7
:101F70007E00B31579003A157300C7146F0058142A
:101F80006A00EE1366008813630025135E00C71213
:101F90005B006C12570015125400C11151007011F2
:101FA0004F0021114B00D61049008D1047004610FC
:101FB000440002104200C00F4000800F3E00420F5C
:101FC0003C00060F3B00CB0E3800930E37005C0E32
:101FD0003500270E3400F30D3200C10D3100900D95
:101FE0003000600D2E00320D2D00050D2C00D90C97
:101FF0002B00AE0C2900850C29005C0C2700350C49
:1020000027000E0C2600E80B2400C40B2400A00BB4
:1020100023007D0B23005A0B2100390B2100180BE4
:102020002000F80A1F00D90A1E00BB0A1E009D0AE4
:102030001D00800A1D00630A1C00470A1B002C0AB1
:102040001B00110A1A00F7091A00DD091900C4095A
:102050001900AB091900920917007B0918006309E0
:1020600017004C09160036091600200916000A0947
:102070001500F5081500E0081400CC081400B80895
:102080001400A4081400900813007D0812006B08C7
:1020900013005808120046081200340811002308E3
:1020A00011001208110001081100F0071000E007EC
:1020B0001000D0071000C0071000B0070F00A107E4
:1020C000100091070E0083070F0074070F006507CB
:1020D0000E0057070E0049070E003B070D002E07A4
:1020E0000E0020070D0013070D0006070D00F9066E
:1020F0000C00ED060D00E0060C00D4060C00C8062E
:102100000C00BC060C00B0060C00A4060B009906DF
:102110000C008D060B0082060B0077060B006C0688
:102120000B0061060A0057060B004C060A00420627
:102130000A0038060A002E060A0024060A001A06BB
:102140000A001006090007060A00FD050900F4054B
:102150000900EB050900E2050900D9050900D005D1
:102160000900C7050900BE050900B5050800AD0551
:102170000800A50509009C050800940508008C05C9
:102180000800840508007C050800740508006C053B
:102190000700650508005D050700560508004E05A7
:1021A000070047050700400508003805070031050E
:1021B00007002A050700230507001C050600160571
:1021C00007000F0507000805060002050700FB04CD
:1021D0000600F5040700EE040600E8040600E20429
:1021E0000700DB040600D5040600CF040600C9047E
:1021F0000600C3040600BD040600B7040600B104CF
:102200000500AC040600A6040600A00405009B041B
:10221000060095040500900406008A040500850464
:102220000500800406007A040500750405007004AA
:1022300005006B04050066040500610405005C04EC
:10224000050057040500520405004D04050048042C
:102250000500430405003E0404003A04050035046B
:102260000500300404002C040500270404002304A6
:1022700005001E0404001A040400160405001104DD
:1022800004000D0404000904050004040400000413
:102290000400FC030400F8030400F4030400F0034A
:1022A0000400EC030400E8030400E4030400E0037A
:1022B0000400DC030400D8030400D4030400D003AA
:1022C0000400CC030400C8030300C503030024F486
:1022D00004D9201BC40C5C0E9804C4095F02650776
:1022E0007101F405F900FB04B30048048700C10341
:1022F00069005803550003034500BE023A008402FA
:10230000310053022A002902250004022000E401C2
:102310001C00C8011900AF011700980114008401C6
:102320001300710110006101100051010E00430102
:102330000D0036010B002B010B0020010B001501D5
:1023400009000C01090003010800FB000800F3006C
:102350000800EB000700E4000600DE000600D800DD
:102360000600D2000600CC000500C7000500C20030
:102370000500BD000400B9000400B5000400B10070
:102380000400AD000400A9000400A5000300A200A1
:1023900003009F0004009B000300980003009500C9
:1023A000020093000300900003008D0002008B00E8
:1023B0000300880002008600020084000300810000
:1023C00002007F0002007D0002007B000200790015
:1023D0000200770001007600020074000200720023
:1023E0000100710002006F0002006D0001006C002E
:1023F00002006A0001006900020067000100660037
:10240000010065000100640002006200010061003B
:102410000100600001005F0002005D0001005C003F
:1024200001005B0001005A00010059000100580042
:102430000100570001005600010055000100540042
:102440000100530000005300010052000100510040
:102450000100500001004F0001004E0000004E003E
:1024600001004D0001004C0001004B0000004B003A
:1024700001004A0001004900010048000000480036
:102480000100470001004600000046000100450031
:10249000000045000100440001004300000043002B
:1024A0000100420000004200010041000000410024
:1024B0000100400001003F0000003F0001003E001D
:1024C00000003E0001003D0000003D0001003C0016
:1024D00000003C0000003C0001003B0000003B000D
:1024E00001003A0000003A00010039000000390004
:1024F00001003800000038000000380001003700FB
:1025000000003700010036000000360000003600F1
:1025100001003500000035000000350001003400E6
:1025200000003400000034000100330000003300DC
:1025300000003300010032000000320000003200D1
:1025400001003100000031000000310001003000C6
:10255000000030000000300001002F0000002F00BC
:1025600000002F0000002F0001002E0000002E00B0
:1025700000002E0001002D0000002D0000002D00A5
:1025800000002D0001002C0000002C0000002C0099
:1025900000002C0001002B0000002B0000002B008D
:1025A00000002B0001002A0000002A0000002A0081
:1025B00000002A0001002900000029000000290075
:1025C0000000290000002900010028000000280068
:1025D000000028000000280000002800010027005B
:1025E000000027000000270000002700000027004F
:1025F0000100260000002600000026000000260042
:102600000000260001002500000025000000250034
:102610000000250000002500000025000100240026
:10262000000024000000240000002400000024001A
:10263000010023000000230000002300000023000D
:1026400000002300000023000000230001002200FE
:1026500000002200000022000000220000002200F2
:1026600000002200010021000000210000002100E4
:1026700000002100000021000000210000002100D6
:1026800001002000000020000000200000002000C9
:1026900000002000000020000000200000002000BA
:1026A00001001F0000001F0000001F0000001F00AD
:1026B00000001F0000001F0000001F0001001E009E
:1026C00000001E0000001E0000001E000000205739
:1026D0003A004520255300202F0020403A0054683E
:1026E00065726D616C2052756E6177617900202D85
:1026F00020496E76616C69642065787472756465D2
:1027000072206E756D62657220210A0048656174E1
:10271000696E67206661696C656400546865726DF6
:10272000616C2052756E61776179004D494E544558
:102730004D5020747269676765726564004D415839
:1027400054454D5020747269676765726564006214
:102750006564002C2073797374656D2073746F70D9
:1027600070656421204865617465725F49443A2050
:1027700000004B6420004B6920004B702000504942
:1027800044204175746F74756E652066696E697357
:10279000686564212050757420746865206C6173CD
:1027A00074204B702C204B6920616E64204B642098
:1027B000636F6E7374616E74732066726F6D2062E6
:1027C000656C6F7720696E746F20436F6E66696702
:1027D00075726174696F6E2E680A00504944204119
:1027E00075746F74756E65206661696C656421200F
:1027F00074696D656F75740A00546865726D616CFB
:102800002052756E617761790048656174696E6701
:10281000206661696C656400504944204175746F9D
:1028200074756E65206661696C6564212054656D00
:10283000706572617475726520746F6F2068696766
:10284000680A00204B643A2000204B693A2000209F
:102850004B703A20000A20436C6173736963205007
:102860004944200A00204B643A2000204B693A205A
:1028700000204B703A20000A204E6F206F76657260
:1028800073686F6F740A002054753A2000204B75EE
:102890003A2000206D61783A2000206D696E3A2060
:1028A0000020643A200020626961733A2000504998
:1028B00044204175746F74756E6520737461727411
:1028C0000A00504944204175746F74756E65206626
:1028D00061696C6564212054656D70657261747501
:1028E000726520746F6F20686967680A004531005F
:1028F00023646566696E652044454641554C545FC6
:10290000004D383420582059205A20450070012CA1
:102910000190012701B0012201C0011D01F0011841
:10292000011002130130020E01600209019002043D
:1029300001C002FF000003FA004003F5008003F02D
:1029400000D003EB002004E6007004E100E004DCAA
:10295000004005D700C005D2004006CD00D006C813
:10296000008007C3003008BE00F008B900C009B4F9
:1029700000B00AAF00B00BAA00D00CA500000EA05A
:1029800000500F9B00C01096005012910000148C54
:1029900000C0158700B0178200B0197D00D01B78E9
:1029A00000001E730040206E0090226900F0246435
:1029B0000040275F0090295A00E02B5500102E5050
:1029C0000020304B0010324600E033410090353C8F
:1029D000001037370070383200A0392D00B03A2887
:1029E00000A03B2300603C1E00103D1900903D14E8
:1029F00000103E0F00703E0A00C03E0500003F0080
:102A000000403FFBFF803FF6FFC03FF1FF436F6F89
:102A10006C696E672E2E2E0048656174696E672E94
:102A20002E2E004572723A204D494E54454D5000AD
:102A30004572723A204D415854454D500054484516
:102A4000524D414C2052554E415741590048656105
:102A500074696E67204661696C656400496E7661D1
:102A60006C69642065787472756465720A007C3CD8
:102A70003E5E2B3D3F2F5B5D3B2C2A225C004D319F
:102A80003137004D3331002E0A006F70656E2066BD
:102A900061696C65642C2046696C653A200061753B
:102AA000746F25632E67006572726F72207772698A
:102AB00074696E6720746F2066696C650A004E6FDA
:102AC00074205344207072696E74696E670A0053F3
:102AD00044207072696E74696E6720627974652033
:102AE000002E0A0044656C6574696F6E206661692A
:102AF0006C65642C2046696C653A200046696C65FB
:102B00002064656C657465643A0057726974696E17
:102B10006720746F2066696C653A200046696C65B1
:102B20002073656C65637465640A002053697A6577
:102B30003A200046696C65206F70656E65643A20C6
:102B400000454E4420535542524F5554494E450A74
:102B5000002220706F73002220706172656E743ADB
:102B60002200535542524F5554494E452043414C43
:102B70004C207461726765743A2200747279696ED0
:102B80006720746F2063616C6C207375622D6763BE
:102B90006F64652066696C6573207769746820745A
:102BA0006F6F206D616E79206C6576656C732E2079
:102BB0004D4158206C6576656C2069733A310A0086
:102BC0002066696C653A2000667265736800646F00
:102BD000696E67004E6F7720002E0A006F70656E79
:102BE000206661696C65642C2046696C653A20003A
:102BF00053442063617264206F6B0A006F70656ECE
:102C0000526F6F74206661696C65640A00766F6C40
:102C1000756D652E696E6974206661696C65640AFC
:102C200000534420696E6974206661696C0A00284B
:102C30006E6F2066696C65290043616E6E6F74204B
:102C40006F70656E207375626469722000012902DD
:102C500029042908291029202940298029012C022A
:102C60002C0126022604260826102620264026802F
:102C700026402C802C012302230423082310232028
:102C8000234023802301200220042008201020203C
:102C90002040208020102C202C012F022F042F08F0
:102CA0002F102F202F402F802F7EFE7EFD7EFB7E5B
:102CB000F77EEF7EDF7EBF7E7F000100006A2D126F
:102CC00000020000272D4300030000232D04010310
:102CD0000904092D1802030904F12C160303090441
:102CE000E32C0C0C033100320033003400350000BB
:102CF0000016035500530042002000530065007287
:102D000000690061006C0000001803540065006554
:102D1000006E00730079006400750069006E006F3A
:102D20000000000403090409024300020100C0324C
:102D3000090400000102020100052400100105241D
:102D40000100010424020605240600010705820390
:102D500008004009040100020A0000000705030200
:102D6000400000070584024000001201000202003A
:102D70000020C01683047202010203010001C10297
:102D8000018036018136DA1ADE1FFD48A553C29252
:102D90008BC98FCA36D8A8C911241FBECFEFD0E285
:102DA000DEBFCDBF12E0A0E0B1E0EEE0F7EC01E065
:102DB0000BBF02C007900D92A637B107D9F724E1E7
:102DC000A6E7B2E001C01D92AE32B207E1F716E10C
:102DD000CBECD6E104C02197FE010E94CAD8C33CC7
:102DE000D107C9F70E943BD00C9478E30C94000003
:102DF000A0917602B0917702109769F0ED91FC9165
:102E0000119712968D919C911397909377028093CE
:102E100076020995EDCF0895CF93DF93EC0184E01E
:102E200090E00E9441D0009781F0FC01D183C083E3
:102E30002091760230917702338322839093770238
:102E40008093760280E090E002C081E090E0DF9124
:102E5000CF91089508950C9459BD909164009B7F83
:102E600090936400982F906A96959CBD80FD03C056
:102E700091E0863009F490E09DBD0895209A289A4B
:102E8000219A2398229A81E0E8CF8FEF8EBD0DB46E
:102E900007FEFDCF8EB5089561157105D1F0615023
:102EA00071092FEF2EBDFC01AF01481B590B4617CE
:102EB000570738F40DB407FEFDCF3EB531932EBD54
:102EC000F3CF0DB407FEFDCF2EB5FC01E60FF71FC3
:102ED000208308958EBD0DB407FEFDCF08958EBDED
:102EE000FB01CB019E5F0DB407FEFDCF20812EBDFF
:102EF0000DB407FEFDCF21812EBD3296E817F907EC
:102F000091F70DB407FEFDCF089581E0089581E0AB
:102F100008957F928F929F92AF92BF92CF92DF924D
:102F2000EF92FF920F931F93CF93DF931F92CDB732
:102F3000DEB77C0159018B016B01C40ED51E0C1547
:102F40001D0559F1F70180809180F80171908F0182
:102F50007982C4010E9462E3781681F0672DC40172
:102F60000E946AE3C4010E9462E39981891731F0EB
:102F700035D38BE091E022D381E010C041E050E0F6
:102F8000BE016F5F7F4FC5010E94B358F70180817A
:102F90009181019691838083D2CF80E00F90DF9161
:102FA000CF911F910F91FF90EF90DF90CF90BF9046
:102FB000AF909F908F907F9008958F929F92AF9245
:102FC000BF92CF92DF92EF92FF920F93CF93DF9356
:102FD0001F92CDB7DEB75C016B017A014901F501A3
:102FE000808191810E9462E38983002311F0F601C0
:102FF000808341E050E0BE016F5F7F4FC4010E94BB
:10300000B358F50180819181019691838083FFEF10
:10301000CF1ADF0A81E0E81AF10809F780E00F9083
:10302000DF91CF910F91FF90EF90DF90CF90BF9005
:10303000AF909F908F90089598E288E10FB6F89432
:10304000A895809360000FBE909360000895CF9381
:10305000DF931F92CDB7DEB76983DC01ED91FC9160
:103060000280F381E02D41E050E0BE016F5F7F4FB1
:1030700009950F90DF91CF910895FF920F931F93C1
:10308000CF93DF931F92CDB7DEB7F82E08E612E09C
:1030900041E050E0B801CE0101960E9482DF8981B3
:1030A0008F1102C081E007C00F5F1F4F82E00F3712
:1030B000180771F780E00F90DF91CF911F910F916A
:1030C000FF9008958ED289E592E078C20E946A82CC
:1030D0000E94EB828EEF0E941B710C94E770439864
:1030E0000895779876984798FACF439A0895811172
:1030F00001C0439A0895779A8091BE058E7F809390
:10310000BE05769A8091BE058D7F8093BE05479A55
:103110008091BE058B7F8093BE05E7CF8091BD0275
:10312000811110C080916F05823061F0909155132C
:1031300093FB882780F993FF0CC08091AC1181111B
:1031400003C0089581E0089592FB992790F981E0EA
:10315000892708950C94DB5B0E94D5C40E94FB462E
:10316000B5DF0E94455B0E94C9A660E070E080E088
:103170000E942FA31092040183E592E00C94BB47B8
:10318000C82F89EE93E030E6019729F0232F2A9586
:103190000000E9F7F9CFF89489EE93E038EE019753
:1031A00029F0232F2A950000E9F7F9CF0E94C9A63C
:1031B000CC2311F0A0DF01C098DFA895FECFEC0171
:1031C0008B01F42E0E94C9A60CD286EF91E0F6D1B5
:1031D0000115110511F0B80102C066E972E02097EF
:1031E00011F0CE0102C087E992E00E94D2568F2DE5
:1031F000C7DFCF92DF92EF92FF92CF93C82F8091DB
:10320000FA04843010F40E94C64B0FB6F894C090B4
:103210001514D0901614E0901714F09018140FBEE7
:1032200040917D0250917E0260917F0270918002F8
:10323000411551056105710531F18091DC029091D4
:10324000DD02A091DE02B091DF02840F951FA61F60
:10325000B71FA7019601281B390B4A0B5B0B57FDC3
:1032600012C0BFD1609106037091070386E192E01E
:1032700056D26AE080E294E1EADE40E060E070E08D
:1032800080E090E09CDF409100015091010160914D
:10329000020170910301411551056105710509F4A1
:1032A00051C09091C0068091BD069817A1F00FB64D
:1032B000F8948091151490911614A0911714B09160
:1032C00018140FBE8093DC029093DD02A093DE02FF
:1032D000B093DF0237C08091BD02811131C0C111AE
:1032E0002FC08091DC029091DD02A091DE02B091AE
:1032F000DF02840F951FA61FB71FA7019601281B89
:10330000390B4A0B5B0B57FD1BC080917C0281116E
:1033100019C081E080937C02779A8091BE058E7FF0
:103320008093BE05769A8091BE058D7F8093BE0501
:10333000479A8091BE058B7F8093BE05D6DE02C082
:1033400010927C028091780290917902A0917A0289
:10335000B0917B02A7019601281B390B4A0B5B0B2E
:1033600057FD0FC00E94A68034E6C30ED11CE11C9D
:10337000F11CC0927802D0927902E0927A02F09227
:103380007B02CF91FF90EF90DF90CF900895CF9385
:10339000C82F0E9429570E947B3B8C2F2ADF0E9456
:1033A00035A880918102811103C0CF910C94F2AFB6
:1033B000CF910895CF92DF92EF92FF92CF934ADDA3
:1033C00080E885BF85BF40E950ED63E070E080E2B2
:1033D00094E10E94C3D70FB6F894C0901514D09012
:1033E0001614E0901714F09018140FBE88EEC80E53
:1033F00083E0D81EE11CF11C80E294E10E942BD8EE
:10340000811111C00FB6F894809115149091161483
:10341000A0911714B09118140FBE8C199D09AE0914
:10342000BF09B7FDE9CF8FEE91E0C8D0D7D0C4B7C0
:10343000C0FF03C086EE91E0C1D0C1FF03C085ED9F
:1034400091E0BCD0C2FF03C083EC91E0B7D0C3FFD2
:1034500003C082EB91E0B2D0C5FF03C081EA91E0E6
:10346000ADD014BE8AE991E0A9D060E280E294E197
:10347000EEDD83E991E0A2D06AE080E294E1E7DD4D
:10348000ADD082E691E09AD0A9D08BE491E096D0BD
:10349000A5D0E1DCBC018CE391E0A6D060E676E04B
:1034A00085E291E0A1D06AE080E294E1D0DD0E9463
:1034B00081560E9472C880918402811104C00E94CA
:1034C0000A6F811166C02091320130913301409121
:1034D00034015091350160918A0570918B0580917E
:1034E0008C0590918D050E94EDD860933201709308
:1034F0003301809334019093350120918E053091F2
:103500008F05409190055091910560913601709121
:10351000370180913801909139010E94EDD8609374
:1035200036017093370180933801909339012091CF
:1035300092053091930540919405509195056091C5
:103540003A0170913B0180913C0190913D010E94B4
:10355000EDD860933A0170933B0180933C019093C6
:103560003D010E94E7708FED9EE00E9403A60E943D
:10357000815B0E9467580E94406F0E94759980E0AD
:103580000E944B6F28D3CF91FF90EF90DF90CF90A8
:1035900053CD81E08093840296CF80E0F8DE0E94D4
:1035A000C1C88091551386FDD7DD0E9494490E94C1
:1035B0000270F3CF83E892E00C949BC2CF93DF9329
:1035C000FC016491EC012196662329F080E294E1EC
:1035D0003EDDCE01F5CFDF91CF91089587EA92E0ED
:1035E000EDCF8DEA92E0EACFCF93DF93EB01E6DFF8
:1035F000AE01DD0F660B770B80E294E1DF91CF9196
:103600000C9482CFCF92DF92EF92FF926A017B01FE
:10361000D5DFB701A60180E294E1FF90EF90DF9043
:10362000CF900C9482CFCF92DF92EF92FF926A01FB
:103630007B01C4DF22E0B701A60180E294E1FF90A4
:10364000EF90DF90CF900C948FCFCF93DF93EB016F
:10365000B5DFAE0160E070E020E080E294E1DF9150
:10366000CF910C9416CFCF92DF92EF92FF926A0126
:103670007B01A4DF20E0B701A60180E294E1FF9086
:10368000EF90DF90CF900C9416CF811103C080EAA9
:1036900092E002C084EA92E091CFF7DF6AE080E234
:1036A00094E1D5CCCF92DF92EF92FF920F931F93CC
:1036B000CF93DF936C017B01EA01C9017FDFF60143
:1036C000408151816281738188E892E0ACDFF7012B
:1036D000408151816281738185E892E0A4DF488155
:1036E00059816A817B8182E892E09DDF0115110595
:1036F00051F0C801DF91CF911F910F91FF90EF9092
:10370000DF90CF905BCF6AE080E294E1DF91CF91D0
:103710001F910F91FF90EF90DF90CF9098CCCF93B7
:10372000DF93EB014BDFFE0101900020E9F73197B9
:10373000AF014C1B5D0BBE0180E294E1DF91CF91A4
:103740000C94C3D6CF92DF92EF92FF926B017C0173
:1037500083E3C816D104E104F10470F082E3C81ACF
:10376000D108E108F10862E370E080E090E00E9497
:1037700000D40E9435A8ECCFC701B6010E9400D446
:10378000FF90EF90DF90CF900C9435A8CF93DF930C
:10379000C0918802D09189022097A9F061E01C169F
:1037A0001D060CF060E00E94B2A280918802909108
:1037B00089021C161D0614F4019701C0019690930E
:1037C000890280938802DF91CF91089582E0DECF55
:1037D0009B014091BE0550E060E070E004C076952A
:1037E0006795579547958A95D2F740FF15C0809108
:1037F000860290918702820F931F90938702809395
:1038000086028091880290918902B901680F791F20
:1038100070938902609388020895CF93C82F84E043
:10382000C89FF0011124EA57F94F2081318142816C
:103830005381FB0160817181828193810E943ADB17
:103840000E94D0D98C2FCF91C3CF90913906981771
:10385000B1F00E94EB8280913906882339F082E32F
:1038600091E00E9420811092390607C081E0809388
:10387000390682E391E00E9491810C94E7700895EB
:1038800080E0E3DF85E196E00C94C95EDC01ED9118
:10389000FC910190F081E02D0994CF93C82F60E650
:1038A00070E086E593E10E947ACAC11103C060E826
:1038B00070E002C06FE870E086E593E1E7DF86E53F
:1038C00093E1CF910C948DCACF93C82F60E670E03E
:1038D00086E593E10E947ACAC11103C060EC70E0F2
:1038E00002C06FEC70E086E593E1D0DF86E593E1FE
:1038F000CF910C948DCAE82FF0E0EE0FFF1FE65732
:10390000FD4F808191810895E82FF0E0EE0FFF1FB9
:10391000E657FD4F6081718180E090E00E9401DAFE
:1039200020E030E048EC52E40E943ADB20E030E056
:103930004CE555E40E9468D920E030E040E05FE3C8
:103940000E94EDD80E94D5D9862F0895CF93DF939A
:1039500086E593E10E9459CA48E150E060E670E0D4
:1039600086E593E10E946ECA86E593E10E94C5C98F
:10397000892B21F186E593E10E94CDC9C82F86E508
:1039800093E10E94CDC9D82F86E593E10E94CDC96D
:10399000C3FDEACF682F8D2F8F700E9436D0EC2F99
:1039A000E0730E2E000CFF0B23E0F695E7952A95A9
:1039B000E1F7E657FD4F91838083D6CFDF91CF911A
:1039C0000895EF92FF920F931F93CF93DF9360E6DA
:1039D00070E086E593E10E947ACA60E570E086E5D2
:1039E00093E154DFCAE8D2E07E01098110E0B8011A
:1039F000606886E593E14ADF2296F701608186E5FB
:103A000093E10E941DCAF2E0C239DF0769F786E53B
:103A100093E1DF91CF911F910F91FF90EF900C9464
:103A20008DCA0F931F93CF93DF9360E670E086E516
:103A300093E10E947ACACAE8D2E08E01698186E5E4
:103A400093E10E941DCA2296F801608186E593E108
:103A50000E941DCAF2E0C239DF0779F786E593E1DB
:103A6000DF91CF911F910F910C948DCAE82FF0E058
:103A7000EE0FFF1FE657FD4F71836083D2CFFC012D
:103A8000838181110CC08281811109C0808161E034
:103A9000811106C08181811103C060E001C061E035
:103AA00070E080E090E00E9403DA2AE037ED43E224
:103AB0005CE30E943ADB20E030E04CE555E40E94F4
:103AC0003ADB0E94D5D940918A0250918B02469FE1
:103AD0009001479F300D569F300D112430938B027B
:103AE00020938A0240918C0250918D02469F900152
:103AF000479F300D569F300D112430938D02209337
:103B00008C0240918E0250918F02469F9001479FF8
:103B1000300D569F300D112430938F0220938E026A
:103B20004091900250919102469F9001479F300D25
:103B3000569F300D1124309391022093900271CF43
:103B4000CF93C82F60E070E086E593E10E947ACAC7
:103B50006C2F86E593E10E941DCA86E593E1CF9123
:103B60000C948DCAE82F880FFF0BEA51FE4F80811D
:103B7000CBDE20EC3DE0482F429FC001439F900DDB
:103B80001124BC01990F880B990B0E9403DA20E0E5
:103B900030E040E05EE30E943ADB2DE534E741E1AE
:103BA00051E40C943ADBE82F880FFF0BEA51FE4FEB
:103BB0008081A1DEBC0180E090E00E9401DA20E07B
:103BC00030E048EC52E40E943ADB29E032EF44E96D
:103BD00059E30C943ADBBADE86E0B2DF811117C0FC
:103BE00081E08093920259DE80E06EDE80E08CDE20
:103BF000882381F081E088DE882361F082E084DE22
:103C0000882341F083E080DE882321F007C08FEF16
:103C10009FEF089586E091E032DFD3DE80E090E010
:103C20000895CF92DF92EF92FF92CF93C82F6A014F
:103C30007B0180919202882369F120E030E048EC1A
:103C400052E4C701B6010E9406DB181634F4C12CF9
:103C5000D12C88ECE82E82E4F82E2AE037ED43E2FE
:103C60005CE3C701B6010E943ADB20E030E04CE59E
:103C700055E40E943ADB0E94D5D9EC2FF0E0EA51DE
:103C8000FE4F8081F3DE88E0CF91FF90EF90DF90D0
:103C9000CF9056CFCF91FF90EF90DF90CF900895C7
:103CA00090919202992379F09B01613C7D4010F044
:103CB00020EC3DE0E82FF0E0EA51FE4FB9018081B1
:103CC000D5DE88E03DCF089580919202882309F4E3
:103CD00040C084DC8DEC92E071DC80DC80E063DF4E
:103CE000AB01BC0189EC92E09EDC80E03BDFAB01E4
:103CF000BC0187EB92E097DC81E055DFAB01BC01B2
:103D000084EC92E090DC81E02DDFAB01BC0187EB1D
:103D100092E089DC82E047DFAB01BC018FEB92E0EF
:103D200082DC82E01FDFAB01BC0187EB92E07BDC31
:103D300083E039DFAB01BC018AEB92E074DC83E005
:103D400011DFAB01BC0187EB92E06DDC84EB92E00C
:103D500035CC089580919202811133CE089510924E
:103D60009C02EDE9F2E080E090E0A0ECBFE380830C
:103D70009183A283B38380E090E0A8E4B2E48483DB
:103D80009583A683B78310861186128613861486C0
:103D900015861686178680E090E0A0E0B1E4808B5F
:103DA000918BA28BB38B40E050E060E571E4448BD3
:103DB000558B668B778B108E118E128E138E848F9F
:103DC000958FA68FB78F1092930210929402109243
:103DD00095021092960210929B02109297021092F6
:103DE00098021092990210929A0208958F929F92CF
:103DF000AF92BF92CF92DF92EF92FF921F93CF9339
:103E0000DF93CDB7DEB728970FB6F894DEBF0FBEAD
:103E1000CDBF90919B02981709F4BEC0182F409116
:103E20009D0250919E0260919F027091A00280E1DC
:103E3000E2E3F1E0AEEAB5E001900D928A95E1F798
:103E400080919E0690919F06A091A006B091A10638
:103E50008D839E83AF83B887112309F441C04093BB
:103E60009702509398026093990270939A0281EAA4
:103E700092E00E94EE74C0909302D0909402E09081
:103E80009502F090960220E030E0A901C701B6014A
:103E90000E9464D981117EC08090A5029090A602F4
:103EA000A090A702B090A8022AE037ED43E25CE3BD
:103EB000C501B4010E9406DB18160CF06BC0A50109
:103EC0009401C701B6010E94EDD8609393027093EC
:103ED00094028093950290939602CE01059658C065
:103EE00020E030E0A90160919302709194028091EA
:103EF0009502909196020E9464D9882361F01092F5
:103F00009302109294021092950210929602CE01A2
:103F100005960E94EE74C090A902D090AA02E0908B
:103F2000AB02F090AC0220E030E0A901C701B6017D
:103F30000E9464D98823B1F0A701960160913E01E7
:103F400070913F0180914001909141010E94ECD815
:103F500060933E0170933F01809340019093410133
:103F60000E94F1701092970210929802109299029A
:103F700010929A028091AD029091AE02A091AF0290
:103F8000B091B00289839A83AB83BC83CE01019642
:103F90000E94EE7410939B0228960FB6F894DEBF31
:103FA0000FBECDBFDF91CF911F91FF90EF90DF90BB
:103FB000CF90BF90AF909F908F900895D0CE80917A
:103FC000850283FD0FC08091B70E81110BC0209137
:103FD000CC0E3091CD0E80916B0190916C01281721
:103FE000390724F061E080E00C946AB0F7DA8AE5E2
:103FF00093E0E4DA80E008950F931F93FB010FB67E
:10400000F894409115145091161460911714709102
:1040100018140FBE0081118122813381400F511F7E
:10402000621F731FFC014083518362837383148278
:104030001F910F9108950F931F93CF93DF938B01DF
:10404000C2E3D1E020914E0130914F0140915001E7
:1040500050915101FC0160817181828193810E94A4
:1040600068D92C853D854E855F850E94EDD86C878B
:104070007D878E879F87C8010E948F71DF91CF91C6
:104080001F910F910C94EB824F925F926F927F92EF
:104090008F929F92AF92BF92CF92DF92EF921F9337
:1040A000CF93DF9300D000D0CDB7DEB74C015B01DA
:1040B0006A0185DF182F882309F47EC0EE20A9F05D
:1040C0008DDA8BE693E07ADA7090DA0283E08093FF
:1040D000DA0281E08093820280918202882319F0C3
:1040E00081E055D9F9CF7092DA0220E030E0A901E1
:1040F000F40160817181828193810E9464D9882357
:1041000069F080E090E0A0ECB0E489839A83AB830F
:10411000BC83BE016F5F7F4FC4018DDF20E030E0C4
:10412000A901F50160817181828193810E9464D926
:10413000882349F14090AA065090AB066090AC06E7
:104140007090AD0680E090E0A8ECB1E48093AA0600
:104150009093AB06A093AC06B093AD0680E090E0E0
:10416000A0ECB0E489839A83AB83BC83BE016F5F0C
:104170007F4FC50160DF4092AA065092AB06609265
:10418000AC067092AD0620E030E0A901F601608136
:104190007181828193810E9406DB18166CF480E0A5
:1041A00090E0A0E4B0E489839A83AB83BC83BE0132
:1041B0006F5F7F4FC6013FDF812F0F900F900F90F1
:1041C0000F90DF91CF911F91EF90DF90CF90BF9034
:1041D000AF909F908F907F906F905F904F900895D9
:1041E000AF92BF92CF92DF92EF92FF921F93CF9345
:1041F000DF93CDB7DEB728970FB6F894DEBF0FBEBA
:10420000CDBF5C01DCDE182F882309F470C080E08C
:1042100090E0A0E7B2E48D839E83AF83B88780E00F
:1042200090E0A0E5B1EC89839A83AB83BC83BE01A7
:104230006B5F7F4FCE010196FEDE68E873E180E0A0
:1042400090E080DA8091A2069091A306A091A40646
:10425000B091A5068D839E83AF83B88780E090E000
:10426000A8EAB1E489839A83AB83BC83BE016B5F08
:104270007F4FCE010196DFDEC090AA06D090AB063C
:10428000E090AC06F090AD0680E090E0A8ECB1E4E0
:104290008093AA069093AB06A093AC06B093AD06AC
:1042A00080E090E0A0E2B1E48D839E83AF83B88785
:1042B000F50180819181A281B38189839A83AB8347
:1042C000BC83BE016B5F7F4FCE010196B4DEC0920E
:1042D000AA06D092AB06E092AC06F092AD0680E062
:1042E0000E94771864E670E080E090E02BDA812F7E
:1042F00028960FB6F894DEBF0FBECDBFDF91CF91E9
:104300001F91FF90EF90DF90CF90BF90AF900895F6
:10431000AF92BF92CF92DF92EF92FF920F931F93D3
:10432000CF93DF9300D000D0CDB7DEB73091BD0280
:1043300031118FC0022F7A015B016C0180918502DF
:1043400083FD20C020E030E0A901F7016081718188
:10435000828193810E9464D98823A1F01091B70EC5
:10436000111110C02091CC0E3091CD0E80916B01B7
:1043700090916C01281739072CF430D989E493E027
:104380001DD96AC081E08093BD029091551392FFC0
:1043900006C09B7F9093551382E08093BD020E94DC
:1043A000635B80E1E2E3F1E0A6ECB2E001900D9204
:1043B0008A95E1F70E94EB8220E030E0A901F60146
:1043C00060817181828193810E9464D9882339F14F
:1043D0008091B70E811116C020E030E0A9016091F4
:1043E000C80E7091C90E8091CA0E9091CB0E0E949A
:1043F000EDD80E94D0D920916B0130916C016217E9
:1044000073076CF080E090E0A0E7B2E489839A83C0
:10441000AB83BC83BE016F5F7F4FC6010CDE87E0BC
:104420000E945475811104C0B50182E00E94D358E6
:1044300020E030E0A901F7016081718182819381E0
:104440000E9464D9882339F042E0602FC701C8DE9A
:1044500002C010E001C011E0812F0F900F900F906B
:104460000F90DF91CF911F910F91FF90EF90DF9010
:10447000CF90BF90AF900895CF93C82FAFD8C11100
:1044800003C08FE093E002C087E293E0CF9196C82B
:10449000CF92DF92EF92FF920F931F93CF93DF9310
:1044A000CDB7DEB728970FB6F894DEBF0FBECDBFED
:1044B000182FE2DF88EC9FEAA0E0B0E08D839E83B6
:1044C000AF83B887BE016B5F7F4F88EB9EE094DDC2
:1044D0000091DA0283E08093DA0281E08093820225
:1044E00088ECC82E8FEAD82EE12CF12C8091820224
:1044F000882389F18091BC0E882349F16FD882EF1F
:1045000092E05CD88091820281111DC01092B80E99
:104510001092B90E1092BA0E1092BB0E1092BC0EF1
:104520000E9468A64CDD812FA7DFC982DA82EB8268
:10453000FC82BE016F5F7F4F88EB9EE05DDD81E016
:104540008093820204C081E00E94C719DBCF81E022
:104550000E94C719CBCF0093DA0228960FB6F894C1
:10456000DEBF0FBECDBFDF91CF911F910F91FF90A6
:10457000EF90DF90CF9008956F927F928F929F92ED
:10458000AF92BF92CF92EF920F931F93CF93DF938F
:10459000CDB7DEB72C970FB6F894DEBF0FBECDBFF8
:1045A0003091BD02332309F4C2C0122F3A014B01EE
:1045B0005C01E090BC0E1092B80E1092B90E1092F1
:1045C000BA0E1092BB0E1092BC0E80E00E9468A63C
:1045D000E1101AC08091B70E811116C020E030E0C2
:1045E000A9016091C80E7091C90E8091CA0E909178
:1045F000CB0E0E94EDD80E94D0D920916B01309152
:104600006C01621773073CF0C12C01E0212FA3015C
:10461000B401C50139DD80919B02882391F080911E
:104620009D0290919E02A0919F02B091A002B0586D
:1046300089839A83AB83BC8361EA72E0CE010196E1
:10464000FADC20E030E0A9016091D2027091D3023F
:104650008091D4029091D5020E9464D987FF0EC048
:1046600080E090E0A0E7B2E489839A83AB83BC83C7
:10467000BE016F5F7F4F82ED92E0DDDC80E090E075
:10468000A8ECB2E489879A87AB87BC8788E0E6EC20
:10469000F2E0DE01119601900D928A95E1F7BE01DC
:1046A000675F7F4FCE0101960E94C87280E090E064
:1046B000A0EAB0E489839A83AB83BC83BE016F5FB9
:1046C0007F4F8EEC92E00E94EA728091D20290912C
:1046D000D302A091D402B091D50280933E01909371
:1046E0003F01A0934001B09341018093BA0590939C
:1046F000BB05A093BC05B093BD058AEB95E00E9475
:1047000090918091BD0281508093BD02882339F041
:104710000E94CDC48091BD0281508093BD028091E2
:104720006F05823011F40E94DB5B0E9467582C9663
:104730000FB6F894DEBF0FBECDBFDF91CF911F91B2
:104740000F91EF90CF90BF90AF909F908F907F9000
:104750006F90089581548A3108F042C0E82FF0E04C
:104760004091FB025091FC026091FD027091FE02AB
:1047700004C076956795579547958A95D2F7842F0B
:10478000817040FF2FC0EF51FD4F9081992309F1B7
:10479000E0910603F0910703E90FF11D908120EDF0
:1047A000290F2A3098F09E3211F491810CC09D326D
:1047B00011F09B3271F4918120ED290F2A3030F0F5
:1047C0009E3239F4928190539A3018F42E2F9F2FF5
:1047D00002C020E090E02093020390930303089529
:1047E00080E008950895809102039091030300975B
:1047F00031F04AE050E060E070E00C943DDD60E0B4
:1048000070E0CB0108954F925F926F927F928F92EA
:104810009F92AF92BF92CF92DF92EF92FF92CF938F
:1048200083E598DF8823B1F0809102039091030320
:10483000892B09F47CC0D7DF97FD0FC0D4DF6F3F11
:1048400071058105910511F00CF071C0CCDF61118B
:104850006EC003C0C091390604C080E00E94251CD0
:10486000C0E040903201509033016090340170906C
:1048700035018090360190903701A0903801B090BA
:104880003901C0903A01D0903B01E0903C01F0909A
:104890003D0186E55FDF882331F06AEB73E085E157
:1048A00096E00E94A25F8C2F0E94251CCC2351F021
:1048B00080913906811106C00E94F11A8BE993E0BC
:1048C0000E94DE1A0E94EE1A8DE893E00E94DE1A22
:1048D000809139060E944D1BA30192016091320123
:1048E0007091330180913401909135010E9464D917
:1048F00081111FC02091360130913701409138015C
:1049000050913901C501B4010E9464D9811111C0CF
:1049100020913A0130913B0140913C0150913D0181
:10492000C701B6010E9464D9882391F002C0C1E09A
:1049300098CFCF91FF90EF90DF90CF90BF90AF9046
:104940009F908F907F906F905F904F900C948A70A3
:10495000CF91FF90EF90DF90CF90BF90AF909F905E
:104960008F907F906F905F904F900895F3DE882333
:1049700041F081E02091020330910303232B09F4DD
:1049800080E00895CF93DF93D82FC62FEFDF8823E1
:10499000B9F08091020390910303892B11F481E017
:1049A00016C021DF97FD12C01EDF6F3F7105810524
:1049B000910509F0A4F717DF81E0611108C006C076
:1049C0008D2FC8DE8111EBCF8C2F01C080E0DF91ED
:1049D000CF9108952F923F924F925F926F927F9264
:1049E0008F929F92AF92BF92CF92DF92EF92FF92FF
:1049F0000F931F93CF93DF93CDB7DEB7CF58D10975
:104A00000FB6F894DEBF0FBECDBF87E00E94F977E6
:104A1000811184C380913906882329F060E08FE4F6
:104A2000B1DF81117BC3CE010196C857DF4F998357
:104A30008883C858D040DE019596CA57DF4FB983A6
:104A4000A883C658D040FC011086118612861386B2
:104A500014821582168217821082118212821382AA
:104A60003C96CA57DF4F88819981C658D0408E172F
:104A70009F0751F74090260D5090270D6090280D0C
:104A80007090290D20E030E0A901C301B2010E941D
:104A9000EDD85B016C0120E030E040E251E40E947F
:104AA00064D987FD05C09A2C8B2C3C2C2D2C06C07C
:104AB000912C812CE0E23E2EF1E42F2E8091220DEC
:104AC0009091230DA091240DB091250DC457DF4F77
:104AD00088839983AA83BB83CC58D04020E030E000
:104AE000A901BC01CD010E94EDD87B018C0120E021
:104AF00030E040E251E40E9464D987FD05C05E2D9C
:104B00004F2D302F212F04C050E040E030E221E44F
:104B1000852F942FA32FB22F89839A83AB83BC83D5
:104B2000892D982DA32DB22D8D839E83AF83B887B9
:104B300020E030E040E251E4B501C6010E9464D9B2
:104B400087FF06C0A12CB12C60E2C62E71E4D72EDF
:104B500020E030E048E153E4C457DF4F68817981B9
:104B60008A819B81CC58D0400E94EDD81B014C011A
:104B700020E030E04EE053E40E9406DB18162CF0F3
:104B8000522D432D382D292D04C050E040E03EE049
:104B900023E4852F942FA32FB22F8D879E87AF8775
:104BA000B88BC501D601898B9A8BAB8BBC8B20E06F
:104BB00030E048E153E4C301B2010E94EDD82B017B
:104BC0003C0120E030E04EE053E40E9406DB181682
:104BD00034F4412C512C5EE0652E53E4752E20E018
:104BE00030E04EE053E4B101C4010E9406DB181628
:104BF00034F4212C312C3EE0832E43E4942E20E02B
:104C000030E040E251E4B701C8010E9464D987FF57
:104C100004C0E12CF12C00E211E49701A801B101DC
:104C2000C4010E94ECD820E030E040E05FE30E9445
:104C30003ADB698F7A8F8B8F9C8F4D8E5E8E6F8E55
:104C400078A2509039068AE485DD882319F00E9405
:104C5000401C64C286E58ADE882319F0C4DD1B018E
:104C600002C0212C312C95E02916310428F082E372
:104C700094E00E94DE1A52C260E084E483DE182FC2
:104C800021143104B9F08CE194E00E94DE1A112362
:104C900021F082E194E00E94DE1A8AE0A2968FAFB2
:104CA000A29741E050E0BE016F597F4F80E294E14E
:104CB0000E94C3D60E94EB8280E00E94251C81E006
:104CC0000E94C692882321F0852D0E94251C26C2B1
:104CD0000E94257319A21AA21BA21CA21D8A1E8A59
:104CE0001F8A188E19861A861B861C8660E085E44A
:104CF00049DE811103C022E0422E02C044244394C5
:104D0000A12CB12C86EF682E83E0782E99E5892EB0
:104D1000912C8C0E9D1EA4E08A0E911C211431044E
:104D200049F0B50183E094E00E94F41A8EEF93E01D
:104D30000E94DE1ABF92AF92E7E5F4E0FF93EF9393
:104D40007F926F921F920E94B956C857DF4FE88139
:104D5000F981C858D04084819581A681B78140816E
:104D60005181628173816D964CAF5DAF6EAF7FAF45
:104D70006D97A1968CAF9DAFAEAFBFAFA19701E08D
:104D8000222D442DB401CE01875A9F4F0E94589383
:104D90006B017C010FB6F894DEBF0FBECDBF9B0147
:104DA000AC010E94DFDB882321F0852D0E94251CA9
:104DB00000C1C857DF4FA881B981C858D0401896A4
:104DC000CD92DD92ED92FC921B97BFEFAB1ABB0A1E
:104DD000C857DF4FE881F981C858D0403C96C85782
:104DE000DF4FF983E883C858D040F3E0AF16B10431
:104DF00009F094CF1111DDC08CE0FE017996DE013F
:104E0000D59601900D928A95E1F74D845E846F846A
:104E10007888A30192016DA97EA98FA998AD0E94FF
:104E2000ECD86DAB7EAB8FAB98AF89889A88AB8896
:104E3000BC88A501940169AD7AAD8BAD9CAD0E9493
:104E4000ECD869AF7AAF8BAF9CAF8D899E89AF8963
:104E5000B88DC857DF4F88839983AA83BB83C8580E
:104E6000D0409C01AD0121966CAD7DAD8EAD9FAD66
:104E700021970E94ECD821966CAF7DAF8EAF9FAF8B
:104E800021978CE0FE013196DE01AF5BBF4F0190B0
:104E90000D928A95E1F7A301920125966CAD7DAD47
:104EA0008EAD9FAD25970E94ECD825966CAF7DAF57
:104EB0008EAF9FAF2597A501940129966CAD7DAD6E
:104EC0008EAD9FAD29970E94ECD829966CAF7DAF2F
:104ED0008EAF9FAF2997C857DF4F288139814A810C
:104EE0005B81C858D0402D966CAD7DAD8EAD9FAD29
:104EF0002D970E94ECD82D966CAF7DAF8EAF9FAFF3
:104F00002D97AE014B5C5F4FBE016F5B7F4FCE01B3
:104F100085960E94065CBE016B5D7F4FCE01835B70
:104F20009F4F0E94555D69968CAC9DACAEACBFACFA
:104F3000699720E030E0A901C501B4010E9464D95D
:104F400087FF24C061968CAD9DADAEADBFAD6197BE
:104F5000B05861968CAF9DAFAEAFBFAF619765960D
:104F60008CAD9DADAEADBFAD6597B05865968CAFBD
:104F70009DAFAEAFBFAF6597B7FAB094B7F8B09436
:104F800069968CAE9DAEAEAEBFAE6997BE01635B57
:104F90007F4FCE018E599F4F0E940B5F84E2FE012E
:104FA000EE59FF4FA5E1B6E001900D928A95E1F729
:104FB000512C0E94675880E00E94C692882321F0FD
:104FC000852D0E94251CA1C0A7019601C701B6012D
:104FD0000E94DFDB811199C0232831F067ED73E077
:104FE00085E196E00E94A25F11118CC080E1E2E3AE
:104FF000F1E0DE01959601900D928A95E1F781E04E
:1050000080933906CE0185960E9491812091220DD0
:105010003091230D4091240D5091250D6D966CAD6E
:105020007DAD8EAD9FAD6D970E94ECD89B01AC011C
:10503000609132017091330180913401909135017A
:105040000E94ECD84B015C012DEB37E346E855EBB1
:105050000E9406DB87FD4BC02DEB37E346E855E3A6
:10506000C501B4010E9464D918160CF440C0209107
:10507000260D3091270D4091280D5091290DA196B4
:105080006CAD7DAD8EAD9FADA1970E94ECD89B011C
:10509000AC01609136017091370180913801909197
:1050A00039010E94ECD84B015C012DEB37E346E857
:1050B00055EB0E9406DB87FD1AC02DEB37E346E86F
:1050C00055E3C501B4010E9464D9181684F0A70104
:1050D000960160913A0170913B0180913C01909161
:1050E0003D010E94ECD86DA77EA78FA798AB80E109
:1050F000FE01B596A2E3B1E001900D928A95E1F729
:1051000081E001C0852D809339060E942D73809126
:10511000390681110E94E7700E948A70C157DF4FE3
:105120000FB6F894DEBF0FBECDBFDF91CF911F91B8
:105130000F91FF90EF90DF90CF90BF90AF909F9036
:105140008F907F906F905F904F903F902F90089539
:105150004F925F926F927F928F929F92AF92BF9287
:10516000CF92DF92EF92FF92CF93DF93CDB7DEB76E
:105170002C970FB6F894DEBF0FBECDBF8091BE0551
:105180008370833051F060E086E894E00E94F2562C
:105190000E94EE1A87E794E097C00E94E770409063
:1051A0003A0150903B0160903C0170903D0120918C
:1051B000220D3091230D4091240D5091250D60E07A
:1051C00070E088E992E40E94ECD86B017C01609366
:1051D000AE057093AF058093B0059093B105209113
:1051E000260D3091270D4091280D5091290D60E03A
:1051F00070E088E992E40E94ECD84B015C01609376
:10520000B2057093B3058093B4059093B5052091D2
:105210002A0D30912B0D40912C0D50912D0DC30175
:10522000B2010E94ECD86093B6057093B7058093E5
:10523000B8059093B90527E137EB41ED58EBC5016F
:10524000B4010E9406DB87FD36C027E030E048E16C
:1052500053E4C501B4010E9464D9181664F127E132
:1052600037EB41ED58EBC701B6010E9406DB87FD25
:1052700022C027E030E048E153E4C701B6010E94B4
:1052800064D91816C4F019861A861B861C8688E015
:10529000EEEAF5E0DE01119601900D928A95E1F7B4
:1052A000BE01675F7F4FCE0101960E94C87282E007
:1052B0000E94C3760BC060E084E994E00E94F2563D
:1052C0000E94EE1A85E694E00E94DE1A2C960FB634
:1052D000F894DEBF0FBECDBFDF91CF91FF90EF906E
:1052E000DF90CF90BF90AF909F908F907F906F9006
:1052F0005F904F9008952F923F924F925F926F92DE
:105300007F928F929F92AF92BF92CF92DF92EF9255
:10531000FF920F931F93CF93DF93CDB7DEB76697BE
:105320000FB6F894DEBF0FBECDBF082F8091BF052A
:1053300087708730F1F48FE419DB8823B1F0809116
:10534000020390910303892B09F49DC14CDA97FD68
:1053500010C049DA6F3F71058105910511F00CF01D
:1053600092C141DA61118FC104C08FE4F3D9811178
:105370008AC10E94EB8280E00E94251C0E94257356
:1053800081E00E94486F88E5E5D9182F89E5E2D9C8
:10539000282E8AE5DFD901110CC012110EC0181792
:1053A00011F0212E0AC02224239411E021E02D8B3C
:1053B00005C02224239411E081E08D8B80E1E2E39B
:1053C000F1E0AEEAB5E001900D928A95E1F782E551
:1053D000CDDA882379F1809102039091030300973D
:1053E00009F467C0FC016F010191202F2F7D89F026
:1053F000053411F00536B9F7D6011C9260E070E073
:1054000080910203909103030E94EADBF60100837E
:1054100004C060E070E00E94EADBD62EE72EF82E92
:10542000092F20E030E0A9010E9464D9882309F403
:1054300040C005C0D12CE12C80E4F82E00E411110D
:1054400003C0222009F411C18091BE0582FD09C06C
:1054500060913A0170913B0180913C0190913D0136
:1054600003C060E070E0CB012D2D3E2D4F2D502F5D
:105470000E94EDD86093B6057093B7058093B80588
:105480009093B90520913A0130913B0140913C0144
:1054900050913D010E9406DB18165CF419821A82B5
:1054A0001B821C82BE016F5F7F4F86EB95E00E94DE
:1054B000EA72112309F4D4C0222009F4CEC010925C
:1054C0003201109233011092340110923501109282
:1054D00036011092370110923801109239010E9462
:1054E000E770E4E2FBE124912E8BE3E3FBE185909E
:1054F0009590A590B490E7E3FBE1C590D590E59039
:10550000F490A7019601C501B4010E9406DB1816AC
:105510002CF4A5019401C701B60104C0A7019601AE
:10552000C501B4010E9468D92B013C01ECE1FBE10B
:1055300085919591A591B4918D879E87AF87B88B02
:10554000E8E1FBE185919591A591B491898B9A8BC6
:10555000AB8BBC8B9C01AD016D857E858F85988959
:105560000E9406DB181634F01D850E853F8498894D
:105570009D8705C019890A893B88AC89AD87A3013D
:105580009201C301B2010E943ADB20E030E040E822
:105590005FE30E94EDD80E94A1DB212F302F432D25
:1055A0005D850E943ADB69877A878B879C87E5E275
:1055B000FBE1149120E030E040EC5FE3C701B6016D
:1055C0000E943ADB6B017C01612F110F770B880B76
:1055D000990B0E9403DA9B01AC01C701B6010E943E
:1055E0003ADB69837A838B839C8320E030E040EC54
:1055F0005FE3C501B4010E943ADB6B017C01BE8907
:105600006B2FBB0F770B880B990B0E9403DA9B0162
:10561000AC01C701B6010E943ADB6D837E838F83A4
:105620009887AE01475F5F4FBE016F5F7F4FCE012E
:1056300005960E94A7720E941E6F1092320110926E
:1056400033011092340110923501109236011092FC
:105650003701109238011092390180E00E94C37620
:10566000222019F081E00E94C376ED89E11170DDFE
:105670000E94E7700E94196F0E942D7383E080934F
:105680000D010E948A7066960FB6F894DEBF0FBEB9
:10569000CDBFDF91CF911F910F91FF90EF90DF90E1
:1056A000CF90BF90AF909F908F907F906F905F90C2
:1056B0004F903F902F9008950F931F93CF93809119
:1056C000020390910303009711F1FC018F01C19136
:1056D0002C2F2F7DA9F0C53411F0C536B9F7F8018C
:1056E000108260E070E080910203909103030E94B9
:1056F000EADBF801C083562F472F382F292F0BC024
:1057000060E070E0CF911F910F910C94EADB50E0C4
:1057100040E030E020E0652F742F832F922FCF914F
:105720001F910F910895CF92DF92EF92FF92CF9346
:10573000DF930E94A337C82F87FD4AC084E40AD8AC
:10574000882309F43DC0B8DF6B017C01D1E020E083
:1057500030E0A9010E9464D9811101C0D0E0D0934A
:10576000080320E030E0A901C701B6010E9464D916
:10577000882331F1A1DF24E0C202F0011124E25CB0
:10578000F94F608371838283938320E030E0A90125
:1057900060913E0670913F068091400690914106CF
:1057A0000E9464D981110CC080E090E0A0EEBFE3BC
:1057B00080933E0690933F06A0934006B093410627
:1057C000DF91CF91FF90EF90DF90CF900C94BB8052
:1057D000DF91CF91FF90EF90DF90CF9008950F93DE
:1057E0001F93CF930E94A33787FD13C00AEE11E0E9
:1057F000C0E0F80181918F010E94AA23882331F033
:105800005BDFAB01BC018C2F0E946692CF5FC4307E
:1058100081F7CF911F910F9108950F931F93CF930D
:105820000E94A33787FD13C00AEE11E0C0E0F80123
:1058300081918F010E94AA23882331F03DDFAB01C3
:10584000BC018C2F0E947A92CF5FC43081F7CF9138
:105850001F910F9108958091FB02827149F480910C
:10586000FD028C7829F48091FE02837009F408957A
:1058700082E40E94AA238823C1F0809102039091C0
:105880000303009739F04AE050E060E070E00E94C6
:1058900068DE03C060E070E0CB0160938206709325
:1058A0008306809384069093850683E50E94AA234D
:1058B000882349F001DF6093B2067093B3068093AA
:1058C000B4069093B50684E50E94AA23882349F084
:1058D000F3DE6093B6067093B7068093B806909394
:1058E000B90688E50E94AA23882331F0E5DEAB01E2
:1058F000BC0180E00E94869289E50E94AA23882349
:1059000031F0DADEAB01BC0181E00E9486928AE5CB
:105910000E94AA23882331F0CFDEAB01BC0182E0D4
:105920000E94869285E40E94AA23882331F0C4DE77
:10593000AB01BC0183E00C9486920895CF93DF9372
:105940001F92CDB7DEB78091FC0287FD05C0809124
:10595000FD028E7009F440C083E508D8882389F0E1
:10596000ABDE6093A6067093A7068093A80690937B
:10597000A9066093AE067093AF068093B00690932D
:10598000B10680E50E94B624882349F095DE609335
:10599000A6067093A7068093A8069093A90682E5B1
:1059A0000E94B624882349F087DE6093AA0670938C
:1059B000AB068093AC069093AD0684E50E94B624B6
:1059C0008823C9F179DE6093AE067093AF068093A9
:1059D000B0069093B1062FC04091A6065091A7063D
:1059E0006091A8067091A9068BEA94E00E94131BAF
:1059F0004091AA065091AB066091AC067091AD063D
:105A000088EA94E00E94131B4091AE065091AF06C5
:105A10006091B0067091B10685EA94E00E94131B74
:105A20008AE0898341E050E0BE016F5F7F4F80E2F2
:105A300094E10E94C3D60F90DF91CF91089583E542
:105A40000E94AA23882381F080910203909103038E
:105A5000009751F04AE050E060E070E00E943DDDC8
:105A600070932D0160932C0108950F931F93CF9392
:105A7000DF930E94A337182F87FD62C083E50E9441
:105A8000AA23C12F012E000CDD0B8823A1F18091E8
:105A9000020390910303009771F14AE050E060E047
:105AA00070E00E943DDDFE01EE0FFF1FEE5AFE4F3B
:105AB00071836083CC0FDD1FCC0FDD1F8E01025B75
:105AC0001E4F072E000C880B990B0E9403DA2AE068
:105AD00037ED43E25CE30E943ADBC65CD94F288194
